:020000040800F2
:1000000090110020D5000008694300081936000847
:1000100000000000000000000000000000000000E0
:10002000000000000000000000000000FB6200086B
:1000300000000000000000001D4E0008797B000851
:10004000E7000008E7000008FF540008E700000888
:10005000E70000085D0F00086D0F00087D0F000825
:10006000E7000008E7000008E7000008E7000008D4
:10007000E7000008E7000008E7000008E7000008C4
:10008000E7000008E7000008E700000800000000A3
:10009000E7000008E7000008E7000008E7000008A4
:1000A000E7000008E7000008E7000008E700000894
:1000B00007820008E700000800000000E7000008D1
:1000C0000348854600F094FC0048004779910008F9
:1000D000901100200448804704480047FEE7FEE7EF
:1000E000FEE7FEE7FEE7FEE70D7C0008C100000822
:1000F00030B50B46014600202022012409E00D46C0
:10010000D5409D4205D31D469540491B2546954047
:1001100040191546521E002DF1DC30BD70B500248B
:100120002546002801DA01244042002901DA012590
:100130004942FFF7DDFFAC4200D04042002C00D026
:10014000494270BDF0B51FB40646002082B0054696
:100150004024019100901BE0019922460F46304651
:1001600000F010FB049A059B801A994110D31046A9
:100170001946224600F0F6FA361A8F4101972246B8
:1001800001200021009F00F0EDFA38184D41009049
:100190002046641E0028DFDC019B00982946324679
:1001A00007B0F0BD03460B439B0703D009E008C925
:1001B000121F08C0042AFAD203E00B780370401C17
:1001C000491C521EF9D27047D2B201E00270401CA5
:1001D000491EFBD270470022F6E710B513460A46C7
:1001E00004461946FFF7F0FF204610BD0321001D0D
:1001F000401E037812021A43491EF9D51046704773
:10020000024670B54A40D30FDB0740002DD04A00AC
:100210002AD0010E140E000212020919400A520AD5
:100220008418E50104465443000A120A2E04504380
:10023000A4194219200CC543AA18120C0125AD03BC
:10024000521C521912047F39240400D0521C10434E
:1002500001D44000491EC2B20C06C0092018401C3F
:100260004008802A02D003E0002070BD4008400012
:10027000002900DA0020184370BD70B502464A40DC
:10028000D50F40004A00ED0740085208002814D05E
:10029000002A12D0C40DD30D41020120C005520224
:1002A000490A520AE41A091812187D34914201D3FE
:1002B000641C00E04900002C01DA002070BD00231E
:1002C000914201D3891A0343400849000028F7D11D
:1002D00000290AD0914202D10121C90705E09142CB
:1002E00001D2012101E00121C943E005C0184019F4
:1002F00000F06CFA70BD420005D04200120E52426E
:100300008A4201DB00207047C905081870470000C9
:10031000F0B507460846584087B0C00F0490480023
:100320000E46590040084908BC1A884105D2384693
:1003300031461E4617460B460246580040081043F9
:100340004CD0300D039040055900400D490D0590EB
:10035000401A0290402872DA18030121000B0905A7
:100360000843019004980092002805D00199524258
:100370000020884100920190029840210A1A0199B8
:10038000009800F0EFF905460C466B4607CB00F0ED
:100390000AFAC0197141039A0E0D0023D71756406F
:1003A0001A467A40164344D0049A002A2DD0029A65
:1003B000012A039A15DC1205C01A9141012636055F
:1003C000001C7141D20F059ED20700930192029644
:1003D0002A46234600F048FA07B0F0BD38463146B9
:1003E000FAE71605224A0F46B218C01AB741012192
:1003F0000905001C4F4100187F411146181879412A
:10040000E20F10436D19644113E0E2076D081543D4
:100410006408C2071443039A01261205C01A9141C9
:100420003605001C7141CE07400830434908C0180A
:1004300051412A46234600F00AFACDE7FFE7049827
:1004400001224000C117121A00238B410498314643
:10045000C417381AA141EEE730B40124E407634021
:1004600030BC55E730B40124E407614030BC4FE7AD
:100470000000E0FFF0B51FB488B00B990998002484
:1004800048400999C00F490049080991C0070B99D4
:100490000090490049080B9109990898A64608431D
:1004A0001CD00B990A98084318D0099801244000E1
:1004B000420D4800410D099824050003000B20431C
:1004C00009900B980003000B20430B9050181C4917
:1004D0004018002201901446104605E00020014615
:1004E0000DB0F0BD032801DA034600E003239C466B
:1004F000C11A0AAE0AE05F0008ADED5B4F00F75B82
:100500007D430027AA187C41491C5B1E6145F2DD32
:10051000410004AB5A522104120C0A43240C401C23
:100520000828DFDB01980290009970460191009045
:10053000059B049A0799069800F096F9D0E7000009
:100540000DFCFFFFF0B50C465C4085B0E40FE407FE
:1005500003944C000026640859009446490802465A
:100560000296224321D062460A431ED06200570DF4
:100570004A000E032303550D012402462C4924058D
:10058000781B1B0B360B4018234326436146009013
:100590001C46501AB44103D30098401C009002E05E
:1005A000921800985B41002803DA0020014605B04C
:1005B000F0BD0020012109050746864611E064468A
:1005C0001D46141BB54106D36546521BB341744604
:1005D00007430C43A646CD07400849082843921814
:1005E0005B4105460D43EAD11046184313D06046DF
:1005F000194650407140084306D06046101AB34176
:1006000006D20122002306E000220123DB0702E0DC
:100610000122D2435310009874460105381C6141F1
:10062000029C039D0019694100F011F9BFE7000029
:10063000FD03000070B54B005B0803430BD04B007B
:100640005C0D002633466542B341D417AD1AA34171
:1006500002DB0020014670BD12053018514170BD0B
:100660000EB5C217C10F5040CA0740180021054BF4
:100670000293019200910A460B4600F0F5F803B090
:1006800000BD0000330400000EB5054902910021B1
:1006900000910A460B46019100F0E6F803B000BD58
:1006A00033040000C20F410040020123400ADB0571
:1006B000D207090EC0187F2901DA00207047962959
:1006C00003DC9623591AC84001E096398840002A75
:1006D000F4D040427047410040020122400AD20556
:1006E000090E80187F2901DA00207047962903DC63
:1006F0009622511AC84070479639884070470000CA
:100700004A0009030123090B1B051943094B10B5C6
:10071000520D9A4201DA002010BD064B34339A4242
:1007200003DC9A1A00F02EF810BD034951188840D6
:1007300010BD0000FF030000CDFBFFFF10B5002936
:1007400004DB0124E40740428C412146002B04DBFA
:100750001C460123DB075242A341994200D190423B
:1007600010BD000010B5202A04DB0146203A91405C
:10077000002010BD914020239C1A0346E3401943FA
:10078000904010BD10B5202A04DB0846203AD04026
:10079000002110BD0B46D340D0402024A21A914026
:1007A0000843194610BD10B5202A06DBCB170846B2
:1007B000203A1041C1170B4306E00B461341D040CD
:1007C0002024A21A91400843194610BD002904DADA
:1007D000401C490001D140084000704770B400241B
:1007E000050C05D11024000402D1002921D01124C8
:1007F000050E01D100020834050F01D10001241DAE
:10080000850F01D18000A41C002801DB4000641C7E
:10081000002908D020252E1B0D46F540A14000D010
:1008200001212943084301061B1B000ADB1D02D5D9
:10083000002070BC7047DB05181880180029F8DA12
:10084000401C4900F5D170BC40084000704710B50D
:10085000002B08DA0024401C614192185B411A43C6
:1008600001D14008400010BDF0B51FB482B005466C
:100870000C0003D0084607F007FD02E007F004FD76
:1008800020300246009021462846FFF76BFF049B6C
:10089000059A04460F4618431143084314D01846DE
:1008A00010431BD0009840210A1A18460599FFF7FB
:1008B00069FF05460E46009A05990498FFF752FF16
:1008C000084305D0012004E02046394607B0F0BDBA
:1008D0000020C11705430E432C43374300990E985F
:1008E0006305401A7905E40A00220C43FD0A0A3028
:1008F00002D500200146E9E70105101969410C9C69
:100900000D9D00196941FFF7A2FFDFE7F8B5054625
:10091000480040080C46284304D06000184A400DA7
:10092000904201DD2846F8BD15493539884210DC72
:1009300088420BDB290D200308432903014305D01E
:10094000E00F1049C00741180020F8BD0020014603
:10095000F8BD161A4020821B28462146FFF702FFE9
:1009600007460091284621463246FFF70BFF3A46DC
:10097000009BFFF76CFF3246FFF7F4FEF8BD000066
:10098000330400000000F03F4A0009030123090B73
:100990001B0519430A4B10B5520D9A4202DA00208A
:1009A000014610BD064B34339A4203DC9A1AFFF716
:1009B000E9FE10BD034BD218FFF7D4FE10BD0000B6
:1009C000FF030000CDFBFFFF10B5002904DB01246D
:1009D000E40740428C412146002B04DB1C460123E6
:1009E000DB075242A3418B4200D1824210BD00007E
:1009F000064C0125064E05E0E36807CC2B430C3C72
:100A000098471034B442F7D3FFF75EFBA49C00086C
:100A1000C49C000870B58C180578401C6B075B0FF0
:100A200001D10378401C2A1106D10278401C03E052
:100A300006780E70401C491C5B1EF9D12B0705D4AB
:100A40000023521E0DD40B70491CFAE70378401C9A
:100A5000CB1A921C03E01D780D70491C5B1C521EC2
:100A6000F9D5A142D8D3002070BD000038B50446A6
:100A7000064805490068FFF73BFB604300E0401E65
:100A800000900028FBD138BD40420F003400002008
:100A9000F8B50446006881688907890F012902D1E9
:100AA0000168C90722D18168114A10261140012529
:100AB00000290ED18168294381600120FFF7D6FF0C
:100AC00000F0ACFD07460CE000F0A8FDC01B0A28B2
:100AD00007D9A06D3043A065E06D2843E065012093
:100AE000F8BD20680068C043C007EDD10020F8BD04
:100AF00017000080F0B589B00C460746102200218F
:100B0000684608F079FB224624326946084604927A
:100B100008F061F8684600788725000669460028D5
:100B20000FDA00228E18885C76784300F60933438A
:100B30008B54521C0F2AF5DBC87B0A4640006840E4
:100B40000DE000228E18885C76784300F609334366
:100B50008B54521C0F2AF5DBC87B0A464000D07329
:100B60002068102812D00878000619D500228E18A7
:100B7000885C76784300F60933438B54521C0F2A65
:100B8000F5DBC87B0A464000684017E000202218C9
:100B9000137D0D5C401C6B4013751028F7DB24E0BF
:100BA00000200B180A5C5B785200DB091A430A54D8
:100BB000401C0F28F5DBC87B0A464000D073224654
:100BC000256880231432AB54002300E0835420684E
:100BD000401C20601028F9D300202218137D0D5CE2
:100BE000401C6B4013751028F7DB002021180A7990
:100BF0000B7D401C5A400A711028F7DB1022211D82
:100C000005A808F0E1FA394605A8049A07F0E3FFC1
:100C100010220021684608F0EFFA09B0F0BD10B5C7
:100C2000044610220021001D08F0E6FA00200146CB
:100C300020602046F022243008F0DEFA10BD0B467A
:100C4000024610B524321021184607F0EFFF10BD00
:100C5000F0B504460F46214689B000681431009172
:100C600010311546079100283CD010210E1AAE42D3
:100C700000D316460099B2B24018394608F0A4FADB
:100C8000206880192060102834D3B54232D000206B
:100C900021180A790B7D401C5A400A711028F7DB95
:100CA000211D201D079A07F096FFBF19AD1B19E003
:100CB000002021180A793B5C401C5A400A71102818
:100CC000F7DB1022211D02A808F07EFA02A90846CF
:100CD000079A07F080FF102202A9201D08F074FA7D
:100CE000103D1037102DE3D8AAB23946009808F00D
:100CF0006BFA256009B0F0BDF7B523490F22497A98
:100D0000214B511ACDB2197A5B7A0F26F31A0A4693
:100D1000DEB2871E491C0124C9B2761E3B0007F0D3
:100D2000E2FA09060C060C120C06062B3000164BD4
:100D3000AA4224D2154CA05403E0134BB24215DB57
:100D40001DE019720DE0104EAD1EAA4217DA0F4BCE
:100D5000985401985854491CC8B202991954401C1F
:100D60003072002408480121C17108E0074CA054EA
:100D700001986054491CE4E7034BAA42F6D320468D
:100D8000FEBD0220FEBD0000A40000207909002065
:100D900010B502221449012386B000281ED0012874
:100DA00004D002281AD0032807D117E0CA6A1A43D0
:100DB000CA62C96AC907C90F059141000B4A800080
:100DC000515A009100210291032103910849019396
:100DD0000858694600F05AFB06B010BDCC6A1443AF
:100DE000CC62C96A1140E7E7001002400899000888
:100DF0002400002010B5054A4100515A044A8000E1
:100E00001058002200F004FC10BD000008990008F2
:100E10002400002010B5054A4100515A044A8000C0
:100E20001058012200F0F4FB10BD000008990008E2
:100E3000240000207047000000231A4619460EC007
:100E40000249016002494160704700000D093E00FF
:100E5000AB030500FFB5002085B0009005460646AF
:100E600001900024770007980121C05BA14008424F
:100E700030D028190C2203905043089A1258002AA7
:100E800028D0059A002A01D1890723D00899411852
:100E9000082002910856021100070117069840B277
:100EA00005F0A6F8002815D002980C21407A484396
:100EB0000E9940188068002804D00198401CC0B2E8
:100EC000019007E0009A0F99039888540098401CFD
:100ED000C0B20090641CE4B2102CC4D31035761C50
:100EE000EDB2F6B2102DBCD310990198087000989D
:100EF00009B0F0BD30B587B014216846FFF76BF933
:100F0000032001900020029003204003104C009029
:100F1000E06A01210843E062E06A0840059005208C
:100F20006946000700F0B2FAE06A40084000E0625B
:100F3000606B0125AD052843606300F07FFA00F087
:100F40008DFA00F083FA606BA843606307B030BD90
:100F50000010024010B502F0F5F810BD10B50120E8
:100F600000F088FA022000F085FA10BD10B50420C8
:100F700000F080FA082000F07DFA10BD10B51020B6
:100F800000F078FA202000F075FA402000F072FAA4
:100F9000802000F06FFAFF20013000F06BFA012092
:100FA000400200F067FA0120800200F063FA01209D
:100FB000C00200F05FFA0120000300F05BFA01209C
:100FC000400300F057FA0120800300F053FA01209B
:100FD000C00300F04FFA10BDFEE7014600200629CD
:100FE00000D101207047000010B5094A0021CB0054
:100FF000D458844207D89B189B68834203D9C80001
:101000008018007910BD491CC9B21529EFD3FEE73D
:1010100054980008F8B5054604464035287D00265A
:10102000012808D001202875206881688907890F68
:1010300001290ED101E00220F8BD0168C90708D0DE
:10104000A06D20210843A0650126002028753046A8
:10105000F8BDA16DFF220132914302221143A16527
:10106000C1688907890F0091C16889088900C1603A
:101070002068816892071143816000F0CFFA07462B
:101080000EE000F0CBFAC01B0A2809D9A06D02219E
:10109000884310210843A065002028750120F8BD71
:1010A000206880680028ECDB2068C168009A114342
:1010B000C160A06D80088000401CA065C5E70000ED
:1010C000F8B506460D464036317D01290DD0012187
:1010D000317501688A68520709D5816D2022114354
:1010E0008165002030750120F8BD0220F8BD174B46
:1010F0006A68D80547109A42154C8A6A2B6812D044
:101100005B035B0B1A438A622968490305D5A16812
:101110000143A1600A20FFF7A9FC2868800312D5CB
:10112000A06838430EE05B035B0B9A438A62296830
:10113000490302D5A1688143A1602868800302D5D4
:10114000A068B843A06000203075F8BD0110000011
:10115000002701400068006C7047000070B5040073
:1011600006D0A06D264600254036002802D006E0B5
:10117000012070BDE5653575204600F0D1F8A06D01
:10118000C00603D421688868400705D5A06D1021EA
:101190000843A0653575EBE7A06DFF22013290434F
:1011A00002221043A06588688207920F5A48012ADC
:1011B00002D10A68D2072BD1032362689B079A42A7
:1011C00005D05B429A4202D05B009A4209D10A697B
:1011D000920092080A6121680A6963681A430A61E9
:1011E0000CE00A69920092080A6181680F22920459
:1011F0009143816081686268114381602168CA6897
:1012000018239A43CA602168CA68A3681A43CA604F
:10121000816801225206914381608168228F5206C3
:101220001143816020688168C90004D4816801226B
:101230001207114381602068C168384A1140C160BB
:101240002169E068022923D000210843216A226B2A
:101250004903520011430843616B0843A1698903A4
:101260000843E169C90308432168CA681043C8609C
:10127000A06A0146FF39C23905D0E16A08432168F6
:10128000CA681043C860606A0121012802D00BE0DF
:101290000421DAE7206A002823D0A06D2022104321
:1012A000A065E06D0843E065206C012820681FD030
:1012B0000169C90703D00169490849000161206833
:1012C0004169C908C900416120684169E26B114365
:1012D0004161E565A06D80088000401CA06500208C
:1012E00070BD2068C26801231B041A43C260DBE79B
:1012F0000269FF239B009A43026120680269636CC4
:10130000E66C1A43A36C33431A43026120680269F6
:101310000A430261D3E70000002701401902FEFFE3
:101320007047F8B504464069254640350E46082802
:101330000BD02068C068C00709D0A06D20210843E9
:10134000A065002028750120F8BD082700E00C27C3
:1013500000F064F9009011E0701C0FD0002E05D051
:1013600000F05CF90099401AB04207D9A06D042141
:101370000843A065002028750320F8BD2068006898
:101380003842E9D0A06D012149020843A0652068D8
:10139000C16809058A0F0C21002A1AD1226A002A85
:1013A00017D10268120714D5826853070122002B57
:1013B00008DB43688B434360A06D130298431043DE
:1013C000A06506E0A06D20231843A065E06D1043E2
:1013D000E065A069002801D1206801600020F8BD07
:1013E00070B50446216800208968490721D4254644
:1013F0004035297D01291CD001212975E169012988
:1014000004D02046FFF744FB002811D1A16D0A4A01
:101410001140FF2201321143A1650021E1652975C8
:1014200022681C21116021688A6804231A438A609B
:1014300070BD022070BD0000FEF1FFFF0248416850
:10144000490849004160704700580140024841681E
:1014500004229143416070470058014002484168AE
:1014600002229143416070470058014010B501F0DD
:101470006BFD10BD10B504494A69024202D04861B3
:10148000FFF7F4FF10BD000000040140F8B5002391
:101490000124A7E027469F403A4070D04D68022DB6
:1014A00001D0122D14D1DD08AD002D1800952D6A44
:1014B0005E07AC46F50E0F26AE46AE406546B54318
:1014C000AC460E697546AE4065462E43009D2E62C1
:1014D0004D68012D05D0022D03D0112D01D0122D04
:1014E00016D185680326AC465D00AE46AE40654623
:1014F000B543AC46CE687546AE4065462E43866021
:1015000046680D79BE43ED06ED0F9D4035434560BD
:1015100006685F000325BD40AE46AE430D79B44674
:10152000AE07B60FBE4065462E430660C6687546D8
:10153000AE438D68BD403543C5604D68ED0050D564
:101540002B4D6E6B26436E639E082A4DB6007519AF
:10155000AC46AD689E07360F0F27B740BD43052741
:101560003F07B84201D100271AE0234FB84201D10A
:10157000012715E0214FB84202D1022710E030E0E8
:101580001F4FB84201D103270AE01E4FB84201D1D4
:10159000042705E01C4FB84201D1052700E00627CB
:1015A000B7402F436546AF60184D2E684F6896438D
:1015B000FF0300D516432E606E684F689643BF0345
:1015C00000D516436E60AE684F689643FF0200D5A3
:1015D0001643AE60EE684F689643BF0200D51643CF
:1015E000EE605B1C0A681546DD4000D052E7F8BD8E
:1015F00000100240000001400004005000080050AC
:10160000000C005000100050001C0050000401406D
:10161000002A01D0816170478162704701480068EB
:10162000704700003800002002480168491C016032
:10163000704700003800002010B5064801680222FB
:1016400011430160032000F007F800F007F80020C4
:1016500010BD0000002002400020704710B509486E
:10166000816B02041143816300F050F800F046F8EA
:101670000548016808221143016000F037F801F0C5
:10168000E3FC10BD0010024000200240C106C90E5C
:1016900001208840014908607047000080E200E0B6
:1016A000C106C90E0120884001490860704700004A
:1016B00000E100E005490968C206D20E0120904011
:1016C000014201D0012070470020704700E200E095
:1016D000C106C90E0120884001490860704700001A
:1016E00000E200E010B502F041FE10BD02480168C2
:1016F0000215114301607047007000400248016804
:1017000042151143016070470070004002480168B3
:10171000102291430160704700700040094B1A6825
:101720009208920002431A600748026904239A4310
:101730000261012903D040BF20BF20BF704730BFE6
:10174000704700000070004000ED00E00A4B1A688E
:101750009208920002431A60084803690422134366
:101760000361012906D040BF20BF20BF016991431A
:101770000161704730BFF9E70070004000ED00E004
:10178000F8B56649074601250020ED03624B634A20
:101790004031102F6FD011DC012F77D0022F6CD089
:1017A000042F6BD0082F24D1C968032424032140BF
:1017B0007BD0BD026C10A9427CD0A0E00326584C1F
:1017C0003604202F0BD0402F35D0FF3F012F10D1F2
:1017D000C968314069D07C04A1426BD096E00B69A6
:1017E0000969012731403F04B94203D1990559E005
:1017F0002846F8BD01256D04A94203D19907F8D503
:101800004848F8BDB142FCD111688903F9D5116887
:1018100003200005014001200005091A09D0091A1A
:1018200005D0814201D14048F8BD2046F8BD3F486F
:10183000F8BD3F48F8BDC9680125AD06294006D06E
:10184000A942F7D191688907F4D53A48F8BD1168E3
:101850008901FBD5D068D1688002374D000F2D5C1F
:101860000802810FD068491CC0030AD41068C00662
:1018700005D5204606E045E008E023E030E01846C4
:1018800000E02E486843FEF733FCF8BDCC68A4079F
:10189000A40F0CD0022C0DD0012C10D0032CF4D1AD
:1018A000096989050029A3DBF8BD16E002E000F014
:1018B000D1F9F9E711684907F6D51846F4E700F0C1
:1018C000D9F9F1E7CC680C26344006D0082CF1D0C9
:1018D000042CF4D00C2CE3D0E6E700F0ABF9E3E7FE
:1018E000CC680326B6023440F7D00127FF02BC4281
:1018F000E0D07A109442E2D0B442D1D0D4E7A142F1
:10190000DDD0D1E7916B4902E7D4CDE70122120483
:101910009142D4D0C8E700000024F4000010024037
:1019200000093D008890000020A1070040420F0000
:1019300080841E00006CDC022099000800127A00EE
:10194000F8B5044600785E4D800672D55C4E0027DF
:10195000403EB06BC00004D4B06BA9050843B0632F
:10196000012758480168C90511D40168821511433F
:101970000160FFF753FE009005E0FFF74FFE00996E
:10198000401A642837D84F480068C005F5D532683A
:101990000321090560680A400140914208D0810393
:1019A000890F032904D13168890301D50120F8BDCD
:1019B0002A69032109040A4022D0084090421FD01E
:1019C000207880061CD528692A6988430121C9042A
:1019D0000A432A612A698A432A612861C0050FD512
:1019E000FFF71CFE009008E0FFF718FE0099411A6F
:1019F0003548814201D90320F8BD28698005F3D517
:101A000061688803800F032805D13268000582438E
:101A100001400A43326028690322616812041140C0
:101A200008432861002F04D0B06B012109078843C7
:101A3000B0632078C00705D0E868A16880088000FE
:101A40000843E8602078800705D5E8680C218843C2
:101A5000E1680843E8602078400706D5E86803217C
:101A60008902884321690843E8602078000706D589
:101A7000E86803210903884361690843E860208816
:101A8000C00506D5E868032109048843A169084315
:101A9000E8602078400606D5E86801218906884379
:101AA000216A0843E8602078000606D5E86803212B
:101AB00089048843E1690843E8600020F8BD00001C
:101AC000401002400070004088130000F8B5054641
:101AD00053480E460068C007C00FB0420AD25048B3
:101AE000016849084900314301600068C007C00F20
:101AF000B0426FD128784B4C800705D5E068F021C3
:101B00008843A9680843E0602878C00752D0686815
:101B1000022817D0032818D02168012818D0890579
:101B2000002957DAE168890889000143E160FFF77D
:101B300075FD69680746022912D003291CD00129C6
:101B400026D033E021688903EAE721688901E7E7C5
:101B50004907E5E7FFF762FDC11B3348814223D8FF
:101B6000E0680007800F0228F4D123E0FFF756FD5C
:101B7000C11B2D48814217D8E0680007800F032859
:101B8000F4D117E0FFF74AFDC11B274881420BD86B
:101B9000E0680007800F0128F4D10BE0FFF73EFD5D
:101BA000C11B2148814201D90320F8BDE06800072C
:101BB000800FF3D11A480168C907C90FB1420BD988
:101BC000016849084900314301600068C007C00F3F
:101BD000B04201D00120F8BD2878400706D5E06862
:101BE000072109028843E9680843E0602878000774
:101BF00007D5E0680721C90288432969C90008435D
:101C0000E06000F037F8E168084A0906090F515C06
:101C1000C840074908600320FFF71EFD0020F8BDFB
:101C200000200240001002408813000010990008B4
:101C300034000020044805490068C968044A490581
:101C4000490F515CC840704734000020001002402A
:101C500029990008044805490068C968044A8904AC
:101C6000490F515CC840704734000020001002400A
:101C70002999000810B5184AD1680C20084004289A
:101C80000BD0082810D00C2810D050680004410F49
:101C90000120C003491C884010BD1068C00601D552
:101CA0000E4810BD0E4810BD0E4810BD88020E4BE8
:101CB000000F185C0902D368890F491CDB0301D5AA
:101CC000084A05E01268D20601D5044A00E0044A39
:101CD0005043FEF70DFA10BD0010024000093D0010
:101CE0000024F40000127A0020990008F8B5044698
:101CF0000078FF4DC0074CD0E8680007800F02282D
:101D000007D0E8680007800F032809D1E868C003FE
:101D100006D5286880033CD56068002875D038E077
:101D2000012062680004824203D1296801432960CE
:101D300011E0052301211B0489049A422A6802D17B
:101D40000A432A60F1E782432A602A68024000922F
:101D5000286888432860606800280DD0FFF75EFC83
:101D60000646E44F04E0FFF759FC801BB8427DD8DB
:101D700028688003F7D50CE0FFF750FC0646DD4FDE
:101D800004E0FFF74BFC801BB842F0D828688003C2
:101D9000F7D42078800741D5E8681F270007800F17
:101DA0003F02012807D0E8680007800F032809D107
:101DB000E868C00306D42868400717D5E068012802
:101DC00023D113E0E068002817D029680922914345
:101DD00001432960FFF722FC064604E0FFF71EFCE2
:101DE000801B0228C3D828684007F7D56868216996
:101DF000B84309020843686010E0286840084000C2
:101E00002860FFF70BFC064605E090E0FFF706FCB4
:101E1000801B0228ABD828684007F7D42078C0067A
:101E200076D5E868B44E0007800F0BD0E069002833
:101E30005DD02868FF21013108432860FFF7EEFBE1
:101E4000074644E02868800502D5E06900286ED086
:101E5000606A69683140884212D903F0E9FA0028C3
:101E6000AED16868616AB043084300E0E4E06860AE
:101E70006868218C0002000A0906084368600FE0C8
:101E80006968B143014369606868218C0002000AF7
:101E9000090608436860606A03F0CAFA00288FD117
:101EA000606A410B0120C003491C8840E968934ADD
:101EB0000906090F515CC840914908600320FFF7EB
:101EC000CBFB25E0FFF7AAFBC01B02288AD82868B5
:101ED0008005F7D56868616AB04308436860686840
:101EE000218C0002000A09060843686010E0296896
:101EF000FF20013081432960FFF790FB064604E094
:101F0000FFF78CFB801B022884D828688005F7D453
:101F100020787C4E000723D560690028306910D0F6
:101F2000012108433061FFF779FB074605E009E12D
:101F3000FFF774FBC01B02287ED830698007F7D5F5
:101F40000EE0400840003061FFF768FB074604E000
:101F5000FFF764FBC01B02286ED830698007F7D4F6
:101F60002078400761D5A86B0027C00005D4A86B76
:101F7000012109070843A863012763480168C905CF
:101F800011D40168821511430160FFF747FB0090EF
:101F900005E0FFF743FB0099401A64284CD85A48E3
:101FA0000068C005F5D5FF20A2680130824203D148
:101FB00031690143316111E001218902002A07D012
:101FC00005231B029A4203D132690A433261EFE7CB
:101FD000326982433261306988433061A0680028E9
:101FE0000ED0FFF71BFB009006E0FFF717FB0099F0
:101FF000411A404881421FD830698005F5D50DE06F
:10200000FFF70CFB009006E0FFF708FB0099411A70
:102010003848814210D830698005F5D4002F04D0AB
:10202000A96B012000078143A9632078800630D581
:102030003649A0694A1400E07DE0002816D0AB685C
:1020400001200343AB606B6B03436B63086A10436F
:102050000862FFF7E3FA064604E0FFF7DFFA801BA9
:10206000022868D8A8688007F7D512E0A868400859
:102070004000A860086A90430862FFF7CFFA06465E
:1020800004E0FFF7CBFA801B022854D8A868800729
:10209000F7D4A06A002853D0E9680907890F0329FB
:1020A00050D0012636060228286805D0B0432860A3
:1020B000FFF7B4FA044640E0B0432860FFF7AEFAF9
:1020C000074604E0FFF7AAFAC01B022833D82868A5
:1020D0008001F7D4216BE06AEA680843616BFD2355
:1020E0001B049A4311430843E860286830430FE01B
:1020F000001002408813000000E000001099000862
:1021000034000020401002400070004000000140F8
:102110002860FFF783FA044604E0FFF77FFA001B0C
:10212000022808D828688001F7D509E0FFF776FA79
:10213000001B022801D90320F8BD28688001F5D4CE
:102140000020F8BD0120F8BD704730B501462031B0
:102150000A78012A15D001220A7002234B70046804
:10216000CA23636204685323636203689C68202562
:102170002C439C600068FF2343624A700020087073
:1021800030BD022030BD10B505F092FD10BD00003D
:1021900070B50446006881688025C90400290BDAFF
:1021A000C068C00508D52046FFF7EDFF2168C86864
:1021B0002840FF388238C8602068816889040BD5C0
:1021C000C068800508D52046FFF7BEFF2068C168BB
:1021D000054A29408918C16001200449400448612A
:1021E00001202034607070BD7FFDFFFF00040140BE
:1021F000F8B5054604462035287801281DD0012071
:102200002870022068702268CA2050622268532019
:102210005062FF2001300026FF2781421CD1216837
:102220008A6882438A602068816801221203914390
:102230008160FFF7F3F9009009E00220F8BDFFF795
:10224000EDF90099411A7D20C00081421BD8206819
:10225000C068C007F3D020E02068816801225202E4
:102260009143816020688168120191438160FFF78A
:10227000D5F900900DE0FFF7D1F90099411A7D20C2
:10228000C000814205D920684762032068702E7023
:10229000F8BD2068C0688007EDD52068476201203E
:1022A00068702E700020F8BDF0B50C46FF219C46EA
:1022B0000131254640268F051D4B20358A4204D129
:1022C00061620168C869496C05E0012149026162E7
:1022D0000168086A896C8202920E22704204520ED2
:1022E00062704206520EA270020C49043240490C40
:1022F000E27061608100890E297001463940184002
:10230000E1616061604600280FD1207803F0C8F8D1
:102310002070607803F0C4F86070A07803F0C0F813
:10232000A070287803F0BCF828700020F0BD0000F1
:102330008080808010B500680B464068C021C9438A
:1023400001400002000ECC04D870E40E5C708C06D4
:10235000A40E0904490F9C701970002A0AD103F0D9
:102360009FF8D870587803F09BF85870987803F06D
:1023700097F89870002010BD30B50B460168896A47
:102380005960016809694904490C9960006804684A
:102390000F482146014088024D04800E18706D0ED2
:1023A00049065D70490E99706102490E4024214032
:1023B000D970002A0AD103F073F81870587803F026
:1023C0006FF85870987803F06BF89870002030BD63
:1023D0007F7F7F0070B5040005D0254620356878E2
:1023E000002802D006E0012070BD002028702046A1
:1023F00000F042F8022068702168CA204862216813
:1024000053204862204603F05EF8FF210028206830
:1024100003D0416204206870E5E78268154B1A40DA
:102420008260226890686368A66918432369334311
:10243000184390602268E06810612068026923896F
:102440001B041A4302612068C26880239A43C26059
:102450002068C26C92089200C264E269606902431B
:102460002068C36C1A43C26420684162012068700E
:10247000002070BDBFFF8FFF00B597B00420009013
:1024800000200A90FF20013002906846FFF72EFCE2
:10249000002801D0FEF7A0FD20200E90C0020F9072
:1024A0000EA8FFF74DFA002801D0FEF795FD084869
:1024B00001690122920411430161002211460220A8
:1024C000FFF710F90220FFF7EBF817B000BD00008E
:1024D00040100240FEB506460446203630780B46D2
:1024E000012842D0012030700220707020681D4603
:1024F000002720358068002A39D0400655D5187845
:1025000002F0CEFF287802F0CBFF19789878090402
:1025100008435978DA7809021204114308432978EC
:1025200009060843D969084359690843054699696A
:102530005868084300902168CA20486221685320E7
:102540004862FF205A6A0130802182424AD12268C3
:102550009368834393602268D0680840FF388238CC
:10256000D060FFF75BF8019029E00220FEBD400635
:1025700000D4DF70187802F09BFF0204587802F054
:1025800097FF00020243987802F092FF0243D87846
:1025900000040243287802F08BFF00060243D8694A
:1025A0000243586902431546C1E7DF70AAE7FFF707
:1025B00035F80199411A7D20C00081422AD820684F
:1025C000C068C007F3D02068C561216800984864DE
:1025D00020688168FF220132114381602068816890
:1025E000120130E02068826801235B029A43826016
:1025F0002068C2680A401D495118C160FFF70EF8F3
:1026000001900EE0FFF70AF80199411A7D20C00001
:10261000814206D92168FF2048620320707037701C
:10262000FEBD2068C0688007ECD52068056221687F
:1026300000988864206881680122520211438160F9
:1026400020688168120111438160094802680121F4
:1026500049040A43026082680A4382602168FF20BD
:1026600048620120707037700020FEBD7FFDFFFFC3
:1026700000040140F8B505460446203528780B468D
:10268000012815D001202870022068705878002A8F
:1026900010D002F005FF987802F002FFD8789E78FB
:1026A000000406435878197800024903084316E0ED
:1026B0000220F8BDC10603D5EF2108400A3058704A
:1026C000D87802F0F5FE0604587802F0F1FE000218
:1026D0000643987802F0ECFE064318784003064360
:1026E0002168CA204862216853204862204602F0CF
:1026F000EAFE0027002811D11048064020684660F5
:102700002068C16880229143C1602068806880068B
:102710000CD4204600F08CF8002807D02168FF2058
:102720004862042068702F700120F8BD2168FF20E6
:102730004862012068702F700020F8BD3FFFFF0045
:10274000F8B506460446203630780D4601280ED0EE
:102750000120307002207070206800278068002AF5
:1027600007D040061AD5287802F09AFE17E002201A
:10277000F8BD400600D4EF70287802F099FE0204FC
:10278000687802F095FE00020243A87802F090FEFD
:102790000243E8780004024300920BE0EF702978CE
:1027A000A878090408436978EA78090212041143F9
:1027B000084300902168CA2048622168532048627B
:1027C000204602F080FE00281FD1184900980840DA
:1027D0002168086020688168012292049143816029
:1027E0002969E868084321688A681043886020687E
:1027F000C16880229143C1602068806880060CD443
:10280000204600F015F8002807D02168FF20486214
:102810000420707037700120F8BD2168FF204862E5
:102820000120707037700020F8BD00007F7F7F00AE
:1028300070B504460068C168A0229143C160FEF7EC
:10284000EDFE7D260546F60006E0FEF7E7FE401B9E
:10285000B04201D9032070BD2068C0688006F4D55D
:10286000002070BD70B5040006D025464035687C58
:102870000026002802D005E0012070BD2E742046FD
:1028800000F032F802206874206801684022914309
:102890000160A168606822690843E1681143084348
:1028A000616901220843A169520211400843E169AC
:1028B0000843216A0843A16A084321680860A069A7
:1028C0000421000C0840616A0843216848602168BF
:1028D000E06A08612068C16992009143C161666540
:1028E00001206874002070BD7047F8B504460027C9
:1028F0006846078026464036707C012802D0707CEE
:1029000022287ED100290CD0002A0AD0002B08D022
:10291000307C012875D001203074707C012802D0F1
:1029200003E00120F8BD322070746765A263A387BD
:10293000E3872163A386E386A764E7640125A06A91
:102940006D03A84207D120680168A943016020688F
:1029500001682943016020680168490603D40168C1
:102960004022114301600121FF20E268C9020530C5
:102970008A42616866D1002904D081420CD1E08E80
:10298000012809D1206B21680088C860206B801C59
:102990002063E08E401EE086E08E002843D1A06ACE
:1029A000A84246D120680168012212031143016048
:1029B0003FE02068C068A16B0880A06B801CA0630A
:1029C000B0E0002202212046069B03F03DFC0028D7
:1029D0007DD1206B21680088C860206B801C20633B
:1029E000E08E401EE086E08E002808D1A06AA84252
:1029F00005D1206801680122120311430160002201
:102A000000E0CCE001212046069B03F01DFC0028DD
:102A10007FD12068C068A16B0880A06B801CA06378
:102A2000E08F401EE087E08E0028CAD16068002851
:102A30007BD1002201212046069B03F005FC0028E3
:102A400067D1B6E7002904D081420BD1E08E01287E
:102A500008D1206B411C216321680078C860E08E9A
:102A6000401EE086E08E002845D1A06AA84205D12C
:102A70002068016801221203114301600022012134
:102A80002046069B03F0E0FB002842D12068C06886
:102A9000A16B087046E0002202212046069B03F04D
:102AA000D3FB002835D1206B411C216321680078BD
:102AB000C860E08E401EE086E08E00280AD1A06A41
:102AC000A84207D1206802680121090300E020E044
:102AD0000A430260002201212046069B03F0B4FB5A
:102AE000002816D12068C268A06B411CA163027047
:102AF000E08F401EE087E08E0028CCD1606800287F
:102B000013D1002201212046069B03F09DFB0028E3
:102B100002D00320F8BD08E02068C168A06B421C09
:102B2000A2630170E08F401EE087A06AA8420FD127
:102B3000002201212046069B03F086FB002802D0DC
:102B4000606D02210EE02068C06869460880088830
:102B5000012280212046069B03F076FB002804D04A
:102B6000606D202108436065D3E701207074A06A7E
:102B7000A84211D120688168C943C9060CD4616D8F
:102B80000222114361650168A94301602068016860
:102B9000294301603774C4E637740020BAE7022085
:102BA000B8E770B5040005D025466035687A00287E
:102BB00002D006E0012070BD00202872204600F0FF
:102BC00027F82420687220680168490849000160DC
:102BD000606A002802D0204605F036F9204605F04C
:102BE000C9F90128E7D0206841680922D20291433F
:102BF0004160206881682A229143816020680168D1
:102C0000012211430160204605F084F970BD0000E7
:102C100010B50448816B012252041143816306F010
:102C2000F7FC10BD00100240FFB5064604466036B2
:102C3000707A83B00D46202858D1002D0CD005980D
:102C4000002809D00120A1680003814207D1206932
:102C5000002804D1E80702D0012007B0F0BD307A87
:102C6000012843D0012030720020E06621207072DC
:102C7000FEF7D4FC01902746403705983882059826
:102C8000788218E0788A401E7882069800900022A8
:102C900080212046019B05F085FA002818D10120EB
:102CA000A1680003814202D12069002812D0216866
:102CB000287888626D1C788A0028E3D106980090F5
:102CC000002240212046019B05F06CFA002808D024
:102CD0000320C2E728882168C005C00D8862AD1CAA
:102CE000E9E72020707200203072B6E70220B4E7D6
:102CF00010B51248017800291ED101220270114836
:102D00000F49016000210164C161D3078161436003
:102D100082638160C160016207234162C363026113
:102D2000C1620422426101630748416B42151143AD
:102D300041630448FEF712FA10BD0000680000204D
:102D4000002401407C050020001002407CB51E4993
:102D5000064609780020002934D01C484168C94340
:102D60000907FBD41A4C606B65152843606300218A
:102D70001848FEF74FF91848009018480190694626
:102D80001448FEF79DF9A014019069460096114879
:102D9000FEF796F90F48FEF723FB0021C9430D48C3
:102DA000FEF7BFFA0B48FEF7D5F90A4980B20A6868
:102DB0009368022633439360096803220A60616BBB
:102DC000A94361637CBD00006800002000700040E2
:102DD000001002407C050020FFFF070001100000EA
:102DE00010B501210020FEF799FC10BD30B585B06B
:102DF000EFF3108472B614216846FDF7ECF9032056
:102E00000190002005252D0702906A468021284662
:102E100000F070F86A464021284600F06BF86A46D8
:102E200008210D4800F066F801216A46C9032846CA
:102E300000F060F809484068804706F0BFFB08488A
:102E4000016804221143016084F3108801210846BF
:102E5000FEF77CFC05B030BD00040050C0970008B0
:102E60000070004010B5EFF3108472B6114801688D
:102E700001221143016001684907FCD50168012264
:102E800012061143016001688901FCD5C168032263
:102E90001143C160C1680907890F0329FAD100F005
:102EA0008BFB05480068804706F0B2FB84F310886E
:102EB00010BD000000100240C0970008014600202D
:102EC0000A0A00D00820084A114201D00422104307
:102ED000064A114201D002221043054A114201D094
:102EE0000121084370470000F0F00000CCCC000046
:102EF000AAAA000038B50B231B07C518114B0FD029
:102F00001C152D1B18D02D1B19D0A542DD6A05D12B
:102F100008242543DD62DB6A234007E08024F8E7CC
:102F2000DC6A01252C43DC62DB6A2B4000931160D4
:102F30001146FEF7ABFA38BDDD6A0224E9E7DD6A27
:102F40000424E6E70010024010B5FFF7B7FF810048
:102F500002484058002800D0804710BDF8020020E9
:102F600070B51C4615460E460846FFF7A7FF002C15
:102F70000DD0074980000C50304601F0FFF80446A0
:102F800000222946FEF7AEFB2046FEF789FB70BD06
:102F9000F802002010B5D2B2FEF73AFB10BD0000D7
:102FA00070B500240E48FFF7D1FE0E4E0E4D010005
:102FB00013D00E483246008B5043FDF799F8B042CB
:102FC00001D9FE2409E0A84207D3401BFE21484353
:102FD0004B210901FDF78CF8C4B2204670BD0000FA
:102FE00000000244B80B0000080700006000F81F52
:102FF00003494A690869496A5040484070470000DF
:103000004000F81F0F494B6A0A69D218120EC271AC
:103010004B6A0A69D218120C82710A8A8B8CD218F8
:10302000120A42710A7C8B8CD21802714A69120E04
:10303000C2704A69120C82708A8A120A4270097D33
:10304000017070474000F81FF0B587B01421684642
:10305000FDF7C1F8224CE06A01210843E062E06A12
:1030600008400590E06A02252843E062E06A2840B3
:103070000590E06A04263043E062E06A3040059043
:10308000E06A80273843E062E06A6946384005908C
:1030900003200190002002901248009005200007B4
:1030A000FEF7F4F91048009069461048FEF7EEF973
:1030B00069460F48FEF7EAF969460E48FEF7E6F959
:1030C000E06A40084000E062E06AA843E062E06A2B
:1030D000B043E062E06AB843E06207B0F0BD0000D0
:1030E00000100240FF9F0000FFFF0000000400509E
:1030F00000080050001C005010B5104C60780028EB
:103100001AD1FFF7F5FD0E480068804700F012FA6B
:1031100000F09CF806F030FAFDF78CFE0020FDF779
:1031200037FE0120FDF734FE0220FDF731FE0320BB
:10313000FDF72EFE0120607010BD00006800002029
:10314000C097000870B5410EC0017D220023FCF736
:10315000F9FF054600F072F8044600E000BF00F0F9
:103160006DF8001BA842F9D370BD000070B505468C
:103170000C4600222048FFF7FFF8002229461E488F
:103180006668FFF7D7F8002221461B48FFF7F4F8DE
:103190006068B042F1D1E878184A01465043C01C3B
:1031A0008308880726D0164968783D220646504392
:1031B00002463C3A7000801EC1408807D10F891832
:1031C000800F4910081AC018A978401E08180D4928
:1031D0003C2248436178E123514322781B015A4342
:1031E0008918A27810180818074A61688002511AD5
:1031F000401870BD0549D7E738030020B505000029
:10320000A0AA990080510100FF030000505544001E
:1032100003207047014800687047000084030020C5
:1032200000B587B0694605A8FFF7A0FF0249096805
:1032300007B0401A00BD00008403002000B587B02D
:10324000694605A8FFF792FF07B000BD10B5084C0E
:10325000207800280AD100F03BF8FF210131054811
:10326000FEF7C6FF00F064F80120207010BD0000DA
:103270003C0000203803002010B5012000F05AFF68
:103280000148FEF785FF10BD3803002070B50446E5
:10329000FFF7C6FF211A0D4D0220285EC01C814297
:1032A00003D9012000F046FF02E0012000F036FFC4
:1032B00000F04CFF002805D1012000F03BFF022068
:1032C000285E241A204600F03FF870BD3C00002024
:1032D00010B51449144886B0002412C01F210160A3
:1032E000846004611149446141600838FFF772F855
:1032F0006946CC750120487588750875002205A9B6
:103300000948FFF7B7F90094019404940022694634
:1033100005480394FFF714FA0348FEF716FF06B0BA
:1033200010BD00000028004038030020FF0300000B
:1033300010B5044C2046211D1830FFF717FF206000
:1033400010BD000084030020F0B587B004461422AD
:103350003F4901A8FCF726FF3D485038406E0090D9
:1033600000F07EF83B4802993B4A401AA105890DBE
:10337000081887B2A10A68468078534202E089188B
:10338000401C80B29942FAD26A461579E1221201B4
:1033900002E0891A6D1CADB29142FAD26A465479A4
:1033A00002E0641CA4B23C393C29FAD2927951184B
:1033B0008EB20121890203E07A1A761C97B2B6B266
:1033C0008F42F9D203E03C3E641CB6B2A4B23C2E5C
:1033D000F9D203E03C3C6D1CA4B2ADB23C2CF9D256
:1033E00003E0183D401CADB280B2182DF9D26946F9
:1033F000C978890769464A7827D01849491E515C1F
:10340000814202D2FCF774FE08461249CA1B1049D9
:103410002C394A60052252068A618E704C700A4629
:103420000D70203210706846C079C8700020C861E5
:10343000FF2248610132C8604A62086102460846BC
:103440002438FFF747F807B0F0BD04490C31D5E741
:1034500088030020FF03000080AEFEFF31990008C2
:1034600010B506480168C86880221040FF388238CD
:10347000C86051000148FEF7BBFE10BD38030020B4
:1034800010B57D2104F017FF4906C009084310BD9F
:1034900010B5410EC0017D220023FCF753FE10BD84
:1034A00030B5194C87B0607800282BD10220FEF788
:1034B00001F9012826D16070694605A8FFF756FE7C
:1034C00012490546FF220846002301322438FEF740
:1034D000EBFE0E4818230146203109780278594343
:1034E00051183C225143427889183C22514382783A
:1034F00080888918064A8902101A0918681A618892
:103500000818608007B030BD3C0000205C0300203C
:10351000FF03000001B582B00020C04300900123EA
:1035200001AA02A90248FFF7E0F9684680880EBDAB
:10353000A003002010B51C481A4901601C4A1B4B0F
:103540000021126803E05208491C072901D29A425F
:10355000F9D84A078B07D20FDB0F52011B011A4320
:10356000C90700D008210A43C261002181600161BE
:103570004161FF22C1600532816242600122016225
:103580005202826141620B48416B821411434163D4
:103590000548FFF767F9002801D0FDF71DFD00F091
:1035A0000BF810BD00300140A00300208096980069
:1035B000340000200010024030B585B01421684668
:1035C000FCF709FE022001900290032003900020E6
:1035D00004906A4608210F48FFF78CFC0524240755
:1035E0006A4640212046FFF785FC6A468021204636
:1035F000FFF780FC01210191CD0302916A46294623
:103600002046FFF777FC012229462046FFF7C2FC3F
:1036100005B030BD0004005000BFFDE7F8B5174607
:1036200005460A461948069C089E0799447183710D
:103630001C0AC4711C0C04721B0E437281720B0AAB
:10364000C3720B0C0373090E4173D4B2C4731048D8
:10365000FDF7E5FA39460E48FDF7F1FA10220B495D
:103660000B48FDF7F5FA224629460948FDF7F0FA1E
:103670000749C81FFD38FDF73DFA064C601CFCF7F2
:10368000B5FD2178000208433060F8BD0C01002030
:10369000B40B0020B00A0020FEB50F460500164608
:1036A0007ED028680028FBD068680028F8D0A86879
:1036B0000028F5D0104602F0BAFC002871D06F4CFB
:1036C0000021E765A56522462674173211706174E2
:1036D0002163A175E1742165616508216A46117055
:1036E0003046694602F095FC0198002800D0012080
:1036F00020750521684601706946207C02F089FC2E
:103700005F4D019828700321684601706946207C4E
:1037100002F07FFC019868700921684601706946D3
:10372000207C02F076FC019868600A2168460170EE
:103730006946207C02F06DFC0198A8600B21684668
:1037400001706946207C02F064FC0198E8600C215D
:10375000684601706946207C02F05BFC0198286194
:103760000D21684601706946207C02F052FC0198E8
:1037700068611021684601706946207C02F049FCAE
:10378000019868761121684601706946207C02F034
:1037900040FC0198E861122168460170694601E029
:1037A00067E068E0207C02F034FC2E462036019869
:1037B00030701721684601706946207C02F029FCB0
:1037C000019830711821684601706946207C02F02A
:1037D00020FC019870711921684601706946207CAF
:1037E00002F017FC0198B07101262E760021207C92
:1037F00002F016FC02F08CFC28462249283004F026
:1038000041FA7D212846C900283004F0A3FA284651
:103810001D49583004F036FA28461C496C3004F033
:1038200031FA28461A49803004F02CFA2846194902
:10383000943004F027FA294617483C3108601748AD
:10384000886017480861174848601748174DC860D6
:103850000B48A9683C308847E064E869804705F078
:1038600085FEA674304604F04BF9686B8047002053
:10387000FEBD0320FEBD0B20FEBD0000A400002005
:10388000C0090020E9430008454D00083D4C0008F0
:10389000954C0008B1430008014B0008FD450008A5
:1038A000714A0008014C0008B94A0008C097000896
:1038B000F8B504461D4617460E460D48FDF7AFF90C
:1038C00039460B48FDF7BBF9F2B221460848FDF72F
:1038D000BFF90749C81FFD38FDF70CF9054C601CFE
:1038E000FCF784FC2178000208432860F8BD000042
:1038F000B40B0020B00A0020FFB585B00F46044687
:1039000007ADF02200211D480E9E05F075FC1B4AF4
:103910001021204605F08AF910220021684605F0A2
:103920006BFC012168460170062239466C46401C3A
:1039300005F04AFC02222946E01D05F045FC0F4A2D
:103940006846089905F047F910220021684605F0FD
:1039500053FC02216846017006223946601C05F0BE
:1039600033FC02222946E01D05F02EFC034A3146B5
:10397000684605F030F909B0F0BD0000C00A00202B
:10398000F8B517460E4605461C46F02200210B48A6
:1039900005F032FC094A1021384605F047F9074A7C
:1039A0002146284605F017F9102E06D32146284651
:1039B000024A1031103005F00EF9F8BDC00A00209F
:1039C000FEB50446002002260190002C5FD0354849
:1039D000016BCA0701D1C80601D50120FEBD002038
:1039E00069460870014614222F4805F005FC2E4850
:1039F000012545702078002804D001280AD003282A
:103A000043D118E02748694605730878C006C00E00
:103A1000403008E023484573E17B0173694608782C
:103A2000C006C00E80300870207901900E20A68953
:103A30002056A7680BE01B48694605730878E0210B
:103A40000843694608700A20268920566768154988
:103A5000097900290ED1694608721248022202A98A
:103A6000007C02F049FB002811D00F496846007A1B
:103A7000E839487033463A466846019903F0A2FF98
:103A8000060006D00749002048713046FEBD0320DD
:103A9000FEBD05482178017002481730017829439E
:103AA0000170F2E7A4000020800A0020FEB5002586
:103AB0000446002816D0304927782E480E4628366E
:103AC000027C3B0004F00FFC1A10121517191C1E83
:103AD00021232527302E383A3C3E404244464A486E
:103AE0004C4E50520320FEBD407C00E0C078207157
:103AF0003DE00079FBE7406C00E0806C606036E000
:103B00001E48FBE71D481030F8E7807CEFE7C07CDB
:103B1000EDE7162009E018493C39886DC96DA160B0
:103B2000606024E0142000E013206946087010460D
:103B300002F06FFA0198E1E7087ED8E74868DDE710
:103B40008868DBE7C868D9E70869D7E74869D5E737
:103B50007078CCE74878CAE73078C8E70878C6E7D5
:103B6000406ACBE7806AC9E7006AC7E702252846B2
:103B7000FEBD0000A4000020980900205C06002083
:103B8000FEB50024002805D061490A8ED20703D073
:103B90000120FEBD0320FEBD5D4B07781E7C002288
:103BA0005C4D3B0004F09FFB190E1F2225282B3192
:103BB0003A3FB1424F495A606366696C6F7F9B8C94
:103BC000ABAEB10000794874002804D0012805D0BC
:103BD000022803D103E05048406B804796E04A71C9
:103BE00001F058F892E00079C8708FE00079087110
:103BF0008CE04068486489E04068886486E04168F9
:103C000000297AD01022454805E04168002974D087
:103C100042481022103005F0D7FA77E00079887416
:103C200003F06EFF72E00079C8746FE03949826872
:103C30003C394068CA65886568E0406801900120A9
:103C40006946087203E0406801906846027201A963
:103C5000304602F0E3F800284FD057E00079411ECB
:103C60000E294AD8287651E0406868604EE04068E6
:103C7000A8604BE04068E86048E04068286145E0A3
:103C80004068686142E00179684601700322694634
:103C9000304602F031FA00282FD0684601781D48DE
:103CA0002830417032E000796946087002223046BF
:103CB00002F022FA002820D068460078687025E0DB
:103CC0000079694608700522304602F015FA00288E
:103CD00013D0684601780F482830017016E000794B
:103CE000694608700422304602F006FA002804D023
:103CF00068460078287009E0FFE7032406E0406882
:103D0000486203E04068886200E002242046FEBD6D
:103D1000A400002098090020C09700085C0600203D
:103D2000F0B50446022087B00290002C31D03F4D00
:103D3000288EC00714D10C2200213D4805F05CFA02
:103D40003B4F0120787020782E461736002804D08B
:103D5000012856D002284CD15FE0288EC00602D53B
:103D6000012007B0F0BD6068002812D0A0680028CC
:103D70000FD0E06800280CD0207C002809D06946CC
:103D800008731A2203A9287C02F0B6F9002802D091
:103D900009E00320E5E71B2069460870287C02F053
:103DA00038F9019820743078042108433070207865
:103DB00038706068A863A068E863E0682864002041
:103DC000A8756946087402F0A3F9A87D6946401CED
:103DD000888205A9287C02F00AF815490023FC39DD
:103DE00048701A46194604A803F0ECFD029000281A
:103DF00005D0002068713078FB21084030700298AF
:103E0000AFE7307804210843307020783870002202
:103E100011460220FCF770FFE8E738703078042183
:103E200008433070A08803F07FFEDFE7A400002085
:103E3000940A0020FEB508AF70CF6F4670C700F03F
:103E400001F8FEBDFFB50D46002681B01F460124D6
:103E5000F0223146294805F0CFF9284A102103986D
:103E600004F0E4FE26480A9941718771390AC1714C
:103E7000390C0172390E41720B9981720B991F4FE7
:103E8000090AC1720B99090C01730B99090E417350
:103E9000203F18E01A48194AC473641C1146A4B2A2
:103EA000203904F098FE00203118019A3B5C525CE6
:103EB000401C5A400C9B80B25A541028F4D3103D39
:103EC0001036ADB2F6B2102DE4D2002D13D00B4A4D
:103ED0000B481146C473203904F07DFE002008E031
:103EE000019A3118525C3B5C5A400C9B401C5A545E
:103EF00080B2A842F4D305B0F0BD0000C00A002093
:103F00001C010020F3B52C4889B00D464278694663
:103F10000A760078294C0877207A617A4018C6B270
:103F2000002D41D000216846017121794171E06A7C
:103F3000214F0290283F79786846017339784173A0
:103F400020462C30009007AB06AA01A9207C01F086
:103F50003FFF79786846417406210174E07C0028AF
:103F600002D007206946087404A9207C02F051F8A9
:103F70000598C0B26870B04218D3801B287068469C
:103F8000182141560022099804F042F9002811D066
:103F90006846182141563246099804F039F900283C
:103FA00006D000200BB0F0BD0320FBE700202870F6
:103FB0000920F7E70820F5E7C0090020A400002049
:103FC00010B542791149022A10D0632A0DD1006838
:103FD0008078642818D00020087000280DD00CA02C
:103FE00005F06EFB0220FCF715FF10BD0279012AD7
:103FF000FBD1006800781040EEE708A005F060FBF8
:104000000220FCF7F7FE10BD0120E5E7400000208C
:104010004C4544204F4E0A0D000000004C45442002
:104020004F46460A0D000000F3B5044687B03649F6
:10403000364803F027FEC821344803F08BFE0120E8
:10404000FCF7E8FE314803F097FE6846FCF7F4FE03
:104050002F4D01982946FCF7D3F8FCF723FB0646C1
:104060002C490098FCF7CCF82946FCF706F9FCF738
:1040700032FB074601210298FCF73DF9FCF72BFBC8
:104080000546FEF78DFF0246632060710898002107
:104090000170206801702368732058702368380A03
:1040A00098702068C77023680120187127686720FE
:1040B000787127683012B871304626680223F07193
:1040C00020680372266868207072284625680323DA
:1040D000A87220680425C372206801731046642109
:1040E0004843FE21FCF704F8216848732068857373
:1040F00021680120C87308482168007808741120DD
:10410000207109B0F0BD0000394D0008F80300200F
:10411000000020410000C84240000020EFF3108161
:1041200072B6034A1368034381F310881360704723
:104130003C010020EFF3108172B6034A13688343F9
:1041400081F31088136070473C010020014800682B
:10415000704700003C01002010B5074800680028A7
:1041600002D0FEF73DFE10BDFEF740FEFEF77AFEE0
:10417000FFF796F910BD00003C010020FF2201323C
:10418000811A90420CD009DC08280DD008DC0128E7
:1041900008D0022806D0042802D105E00F2212021E
:1041A000072070470520704706207047014901200D
:1041B000487070476C000020F0B541788DB0002940
:1041C0001DD1554C2378012B02D1A189491CA18115
:1041D000417B012913D1514EC278314620310D68FF
:1041E0000095E02A0DD04A71027B0A718168284649
:1041F00004F0EAFFF06801693046203088470DB0CE
:10420000F0BD01250222002B0ED083681F78434B9E
:1042100067705B680B933B0004F065F80825313349
:1042200035384A4F6C05EAE7037B042BE7D18068F9
:104230000378012BE3D14378012BE0D18378012B64
:10424000DDD1C0780128DAD10020B070E0234B71B5
:104250000A71A081A073E0732074257065706846B0
:104260000270057108E00020A081207008A802708B
:104270000B98417A08A80171FFF782FCBFE70A7129
:10428000BDE7B57046E00020B07043E0027B0A71E4
:10429000009A04231370012206E083680C689B5C7B
:1042A0005B1CA354521CD2B20B799342F5D8A6E7FB
:1042B00068460570FFF734FDA1E70025A58125704C
:1042C000684602750B98417A6846017605A8FFF7A3
:1042D00057FC6846057011480321103001900830E2
:1042E00002901030039068460174FFF719FD052015
:1042F000307084E7017B03290CD169460A7080681D
:10430000817842780802104340BA6946888068463E
:10431000FFF706FD657072E7480600206C0000207C
:1043200010B501780E4A0123002902D0012914D1C9
:1043300007E04078002801D013700EE002201070D2
:104340000BE04178002908D106490C78012C04D1F2
:104350008B73047ACC73407A0874537010BD0000DC
:104360006C00002048060020704700008307FF22F1
:10437000DB0E9A408907090E994000280BDA0007E6
:10438000000F0838830808489B001818C369934336
:104390000B43C3617047830804489B001B181868CF
:1043A000904308431860704700ED00E000E400E02F
:1043B00010B50B4803F018FD0A484179002905D0D3
:1043C00001218173016B042291430163407C022827
:1043D00005D104480822173001781143017010BD3F
:1043E000540A0020A4000020FEB500277F4803F0F7
:1043F000FBFC7F4D7F4C2878010767D5216B4A066F
:1044000004D5402291434908490021637749420776
:10441000AC310026002A01DBC20710D0734A983263
:104420005378022B02D04B78022B08D1236B5B0808
:104430005B002363637B5371167101279660627979
:104440003A436D4F28D142070AD50A78002A09D18C
:10445000A6724978002905D1397EA172666201E011
:10446000C10719D0397EA27A914201D981070ED5B0
:10447000A672E06A401CE0626078002802D1606A9F
:10448000401C6062206B40084000206304E0F7217C
:104490000840287000F056FC2878800717D5534A4A
:1044A00098321079012803D0607B217B88420ED995
:1044B000A67366716078002802D1606A401C606251
:1044C000607B5071206B40084000206353E0A07B6C
:1044D000002850D0208EC0064DD4A673607B217B6F
:1044E000884236D2082834D8401C6073C0070FD0E9
:1044F000684606706946207C01F08BFD0120385625
:10450000019A411E914201D9401E00E01046787088
:1045100001217956227A207803F07AFE002806D00D
:104520002878F7210840287003F008FA23E02F4884
:10453000072198304170216B490849002163667159
:104540000671617B417179788170607800280FD0A5
:1045500011E00121207C01F063FD206B4008400048
:1045600020632248667198300671617B4171ECE7E7
:10457000606A401C6062206B810702D5022188437B
:104580002063002814D07D21C900184803F0E2FB05
:10459000164803F0F1FB2878800708D5A06D416824
:1045A0001248803088472878FD2108402870FEBDD9
:1045B0002878C00708D0A06D01680C48983088475B
:1045C00028784008400028702878400708D5A06D5A
:1045D00081680648AC3088472878FB21084028705D
:1045E0002878F72108402870D5E70000E809002066
:1045F000BB000020A400002098090020FFB504465D
:10460000002097B00D46014613900F90074610907A
:10461000FD48119010300A90002015901490FB482E
:1046200001711838C2811A9A0274F94AD37B437413
:10463000C170817041718160017341738174416106
:104640000170507C022802D0F248406B8047EF484E
:10465000403803F0C9FB2078694608704109281FDB
:104660006E1E16911290012910D003297ED00529C3
:104670007CD007297BD0E54901201839487000F02B
:1046800021FDE348C17B002972D0DCE1E04FF878DE
:10469000002804D0DD4901201839487097E0B1B2F4
:1046A000DD4E601C731C3A6CFFF76AF968460078AF
:1046B000307012980FAB81B230463A6CFFF7F8F8C1
:1046C00070192038427F017F12020A43817FC07F28
:1046D00009041143000608430F9988424CD1CA4887
:1046E000C94B103000907A8B711C386CFFF704F9BD
:1046F0007079317900020843B179C44C090401434F
:104700007964307AF17900020843717AE83C09044F
:104710000143B07A00060843B864F07A4106490FB5
:10472000617601072046090F20300170307B0007B9
:10473000000FA06001D10120A0607D21C900484385
:10474000A0604018E060B448113D0D300390684609
:10475000057403A9387C01F053FBAC4900201431E7
:1047600048700120F8700846D43802E009E057E1AB
:1047700064E14078607084E7A449052014314870F2
:104780007FE7A178607809020143E078A04A00043D
:1047900008432179090601430791926C0520914253
:1047A0009B4918D00F6A0CE03A6807998A4207D1F2
:1047B00001211591391D119110310A917E6A0BE08A
:1047C000BF6A002FF0D1092190481838417000F0DD
:1047D00079FC1BB0F0BD8E6A225C69460A70401CF1
:1047E0000D92235C401C205C01021007000F083072
:1047F0000C90601919432038037F109A1343427FAD
:1048000012021A43837FC07F1B0413430006184320
:104810001090881B80B20122D2030FA90990904208
:1048200012D236180120029100901298019681B29E
:104830002046079B119AFEF7F1FE10990F988142CE
:104840001AD10120149017E000B20122301812048E
:1048500080180E900291019012980122009281B26C
:104860002046079B119AFEF7D9FE10990F988142B6
:1048700002D101200E9E14900E20694608756448EE
:1048800005A9007C01F0C5FB06990998814205D86D
:104890005E48082118384170466198E7149800284E
:1048A00075D05A48002218384270159981700D99B8
:1048B000C906C90F41718260027354494661544868
:1048C0004A70C26242721598062200280CD04F48E6
:1048D000022118380170796AB14203D1002901D050
:1048E000427074E77E621EE0169805280CD0484896
:1048F00046490023837118390B70806AB04210D189
:1049000000280ED04A7062E74148404A0121817177
:10491000183A1170806AB04203D1002801D00120FA
:1049200013903B4886620C98281A001F002842DD2D
:104930000C9F0C987F1CE91B091F205CC9B20B91CE
:1049400032491839C87000280D9821D0000707D0C7
:104950001A980821C3B2781EC2B2204600F010FC9B
:1049600001202D4D009001960295E019079B0A9AAF
:104970000B99FFF75FFA1398002800D081E62348CF
:10498000183885600B9901730121417320E045E0DF
:104990000007F3D120480290012101960091E0190F
:1049A000079B119A0B99FFF745FA1A980021C3B299
:1049B00019480B9A07E00D98000706D01A980821AD
:1049C000C3B220460C9A00F0DBFB13980028D5D127
:1049D0000D98800605D50D49012008711839887495
:1049E00007E00A48002101710948417B007B8142B0
:1049F00003D906482C3803F0F7F90548022217308E
:104A00000178114301703CE65C060020800A00201A
:104A1000A4000020C09700087A0800200A21D3E6ED
:104A2000611C2A460F4804F0CFFB0F480321017098
:104A3000002141700B4981600673DEE7407C02284B
:104A400001D100F027F909480822017811430170CB
:104A500005480121803803F07DF90348803803F0D0
:104A60008BF9B6E67A080020680A0020BB00002017
:104A700010B50E4C607C022803D00D48406B804777
:104A800001E000F007F9E07B01280ED161790420F4
:104A9000002901D00749487006490822143148709E
:104AA0000248173001781143017010BDA4000020A6
:104AB000C0970008800A002010B50E4C607C0228C8
:104AC00003D00D48406B804701E000F0E3F8E07B45
:104AD00001280ED161790320002901D007494870CF
:104AE00006490822143148700248173001781143F2
:104AF000017010BDA4000020C0970008800A0020AB
:104B0000F0B589B003F0ACF83A4C0546607C022859
:104B100003D03948406B804701E000F0BBF8A07833
:104B20000026364F00282CD038465438216E03F02A
:104B300011F93846543803F01FF9607C02280ED072
:104B400038464038616E03F005F93846403803F0C6
:104B500013F9607C022802D06079002821D00F2050
:104B600069460870207C01F054FA0198616E411882
:104B700022482C3803F0EEF820482C3803F0FCF8DB
:104B80000FE01E497E700320143148701948173019
:104B90000178002901D101210170C9B20822114315
:104BA0000170617D68460172039502A9207C01F0C5
:104BB0007FFA2565617DE27868460274227D427441
:104BC000817403F04DF80590606B069004A9207C79
:104BD00001F01DF9A18B606B4143081A616D40180B
:104BE00060656079002803D17E70A07A401CA072B5
:104BF00009B0F0BDA4000020C0970008800A002082
:104C000010B50B48407C022803D00A48406B80470F
:104C100001E000F03FF80849022048701431487064
:104C200003480822173001781143017010BD0000BD
:104C3000A4000020C0970008800A00203EB512485A
:104C400003F0D2F8114C0020E0730F4D627D6946ED
:104C50000A70943D6A784A706A7E8A70E27C4A7271
:104C60008872C872607C022802D10948806B804734
:104C7000054A69464032207C01F006FA6846807A8F
:104C8000696801F0D5FA3EBD2C0A0020A40000207E
:104C9000C09700083EB5144803F0A6F8134C6946C7
:104CA000607D08701048104D883800784870A83D25
:104CB000E8690190E07C48720120C872617C022999
:104CC00000D000206946084A88722C32207C01F00E
:104CD000DBF9002807D06846807A696801F0A8FAF5
:104CE0006846C07AE0733EBD400A0020A400002060
:104CF0003EB5012468460470FEF7D8FE002805D1B1
:104D0000684601790448012901D004703EBD0321A1
:104D1000017044703EBD00006C00002010B50548D5
:104D200003F062F801210520002209030007FEF7C5
:104D300031F910BD4801002010B50120FCF75AF8E8
:104D400010BD00001FB5194803F04EF8184C102193
:104D5000206B88432063204617300078400721D518
:104D600012487C30007800281CD101F0D1F9A07DD8
:104D70006946401C888103A9207C01F038F80B4962
:104D80008039487000206946087121790246C901BE
:104D90000A4369460A7203460246009002A901A826
:104DA00000F03EF802F0CAFD1FBD0000180A002006
:104DB000A400002010B5034803F016F8FFF798FF91
:104DC00010BD00001C060020F0B506460024204659
:104DD000002E01D0002A1ED10020F0BD355DAF1E8F
:104DE0003B0003F080FA091614160612140E16067C
:104DF0001600641C1554E4B2401CC0B2335D135459
:104E000000E01554401CC0B203E0A41C00E0641C88
:104E1000E4B2641CE4B28C42E0D3F0BD7047000001
:104E2000F0B50F4687B000210691A24C0C9D01926F
:104E300021831E1E617100D10025EAB222709E4DB1
:104E40000178297000780121400908D0022845D056
:104E5000042841D007287DD0022007B0F0BD974834
:104E6000E26C03699B1A23664069801A606621839D
:104E7000681C0822E16B04F0B2F9208B082208308C
:104E800080B220832818A16B04F0A9F9208B083088
:104E900020838B48C069804701466083208B06AB26
:104EA0002954401C80B2090A2954401C2083C1B2F5
:104EB0008148226CFEF7FCFC208B06992954401C8B
:104EC00080B20A0A2A54401C80B20A0C2A54401CA0
:104ED00080B2090E2954E9E001206071E0780028D1
:104EE00072D00121684601733878744BC109684655
:104EF0004173E06A049071485A1C41786846017514
:104F00006E480178684641756A4803A92C300090C4
:104F1000207C00F05DFF81013878BF2210400843FB
:104F20003870664801214156227A207803F070F9E2
:104F300000284BD06148E26C8168891A2166C068FC
:104F4000801A6066A079002807D00020A071387808
:104F5000202100E0A1E0084338705748A16C41705F
:104F60000A0A82700A0CC270090E01713978417107
:104F7000A18C8171090AC1715048217A1F384018EB
:104F80004E490825627A103904F01EF9207A617AB8
:104F90004018C1B22172002E23D02078002820D0E2
:104FA0000F2928D8E079002825D03A78100952181E
:104FB00012070001120F104338703F4A3F4F5071E3
:104FC00000201F3F0AE0FFE7072046E7082044E7EC
:104FD0003B5C53556D1C401CEDB280B28842F7D348
:104FE00009E0002907D0E079002804D0334E217071
:104FF0001F3E00200190314A0027103A1046E77109
:105000000F38FFF7E1FE6072002801D00120E07147
:1050100000202072002E1DD0217800291AD0264FA2
:10502000019878556D1CF81D019AF830636AEDB24D
:10503000002A2AD000220092019302903A46A36CE3
:10504000103A3046FEF7FEFE1B4978192278FF31F0
:1050500004F0BAF8207806AB2918218300206E46A8
:10506000626A0DC6144A1448203AA36CFEF7D6FAB9
:10507000114A208B069911540B0A121853700B0C0D
:10508000090E9370D170001D11E0002200920A4AAF
:1050900001930290203AA36CD3E7002B08D0002A9A
:1050A00006D0681C314604F08FF82078401C20831D
:1050B0000020D2E6A40000207C06002098090020F1
:1050C000C097000810B5104C4021206B08432063A6
:1050D0006079002801D0FFF76BF9E07B002804D14C
:1050E000607C022801D1FFF7D5FD07490A2217315C
:1050F0000878104308700121044802F02BFE034891
:1051000002F03AFE10BD0000A4000020E8090020D3
:1051100030B419480178012908D018481749C068E7
:10512000891CC268084630BC1E3010471349847B76
:10513000203101230A68012C07D04478012C11D0BA
:10514000042C00D1437030BC7047002484730324C6
:105150000C71052414700C68C27B62700968027CB3
:105160008A70EFE702230B7183891B0A13700968A9
:10517000007B4870E7E70000480600206C00002034
:10518000FFB5054689B0A74816460C46089023E1AE
:10519000285D641C801EE4B2030003F0A4F8090635
:1051A00012636FA5B2D8F1EFEE009E490020DC310A
:1051B0004870285D0872641CE0B22A5C4A72401C88
:1051C0004EE00020694608720873087708742819B1
:1051D000401E0590301B401C087604A907A80191C9
:1051E000914F009003AB02AA05A9387C00F025FF7F
:1051F0000090C04340071FD13879002811D1894859
:10520000012120386B46082241569A56914205D119
:10521000002141560C201856814202D000200090F7
:105220000AE080486946097A203841706946097B5E
:1052300001706946097F0176002706E000220320FD
:105240000099FBF759FD7F1CFFB268460521007CE1
:10525000FAF74EFFB842F1D86846007C2018401E8D
:10526000C4B2B9E0285D704A641C0121D07281404B
:1052700091830022E4B211460420ABE0285D400691
:10528000410F68464170285D641C0107090F68469C
:105290000170E0B2295C401CC0B201912A5C401C44
:1052A00012021143C0B201912A5C401C1204114346
:1052B000C4B208466421484301905B486946007CBB
:1052C00000F0EDFE0146C84340070AD16A4608983F
:1052D000127802705348019A2038C2616A465278A7
:1052E00042760022052075E04F48FF21C06D00285E
:1052F00004D00068002801D08047014606200C9A9F
:1053000068E0285D69460874641CE0B20391295C7A
:10531000401CC0B200912A5C401C12021143C0B272
:1053200000912A5C401C12041143642251430091F5
:10533000C0B22A5C401C6946C4B20A723A4803A94A
:10534000007C00F08BFE01460022072042E0285D31
:10535000641C0007000FE4B2002800D101207D2169
:10536000C90048432F497D222039D2008860801827
:105370000022C860114608202CE030E031E0FFE751
:10538000285D00216A46641C11705170E4B28106E8
:1053900001D501211170C10601D50121517000070D
:1053A000000F907020481146007C00F09CFE401CCD
:1053B00012D0684601780898002201716846417849
:1053C00008984171684680781849095C089881718D
:1053D00011460920FBF790FCB44200D2D8E60DB08C
:1053E000F0BD285D69460870641CE0B2295C401C71
:1053F000C0B201912A5C401C12021143C0B201915B
:105400002A5C401C12041143C4B20846642148437C
:10541000019005486946007C00F0F2FD014600223B
:105420000A20D7E7B8090020A40000204999000805
:1054300070B517490023CA681206120F18D18A6B7B
:10544000154CD500134A02D51268224009E08E6B34
:1054500001252D072E438E6312688E6B2240AE43CA
:105460008E63A24204D103218903884200D1012323
:105470000A48016849084900194301600068C007EB
:10548000C00F984201D0012070BD002070BD000007
:105490000010024000700040001800000020024090
:1054A00001090A2200075143000F4018C0B270479B
:1054B000002102E00A38C0B2491C0A28FAD20907C2
:1054C000090E0843704770B504460068C168490674
:1054D00013D40021C943C160FCF7A0F87D2605461E
:1054E000F60006E0FCF79AF8401BB04201D9032011
:1054F00070BD2068C0684006F4D5002070BD10B5AE
:10550000FDF7BAFE10BD0000F0B5082409250457C8
:10551000455747681F6047780026012F0AD1002CA5
:105520000CD04368402B00D30126602B02D3002D02
:1055300007D000250C7015703046F0BD00201860B3
:10554000F8E7DB06F6D1002CF4DD641E64B2002C13
:10555000F0D100780128EDD10248032703883B43AE
:105560000380E7E72C01002002207047F0B587B0E8
:1055700006465020694608723079102826D100244A
:1055800002250F463068611C005D00903268515C56
:105590000902084300903268A11C515C09040843C9
:1055A00064214843009006D068460397057403A819
:1055B00000F052F804E06846057505A800F0B6F85A
:1055C000E41C6D1CE4B2EDB20F2CDBD307B0F0BDD0
:1055D000F8B5054680780C2148431249124E471809
:1055E000787A0C214843345A002182199160287836
:1055F000002808D06878012804D1A86801466143D2
:10560000081A9060F8BD686800F086FC844200D9F2
:105610002046A9680C224843411A787A50438019E1
:105620008160F8BDCC0C00203001002010B501795C
:10563000002903D0012905D0002010BD01680122F6
:10564000044803E0016803480122801C00F002FCCA
:10565000012010BD2C010020F8B505460020009067
:105660002E7904460746102E01D30320F8BD286882
:105670000722007A00210007001700F0B9FC00287B
:1056800000D1012428680821415607220811002171
:1056900000F0AEFC002800D101242968082008563B
:1056A000010709170211914200DD0124022E12D2D6
:1056B000002900DD012400110722052100F098FCDB
:1056C000002800D101242868164902680C20704384
:1056D0000858824209D12868006802F0B9FD002804
:1056E00003D03C4203D00620F8BD0127F9E7002C87
:1056F00001D00520F8BD002F01D00420F8BD0C20FA
:105700003146414307482B6808180ECB0EC00C38B1
:1057100000994172044801220188B240114301807E
:105720000020F8BDCC0C00202C01002010B5017821
:10573000022901D2002010BD0C22064B4A43002052
:10574000D2181060506090601022034800F06FFB88
:1057500010BD0000CC0C00202C01002070B50546C7
:105760000324406802F074FD002800D10224297847
:105770000C20414306484258002A01D1FD22144022
:10578000032C02D108186A684260204670BD0000F0
:10579000CC0C002070B506787D210446C90000209D
:1057A000264A4D00330002F09EFD1C46272746275F
:1057B000460F17462426282A2C2E314636383A3CE6
:1057C0003F41464643454527A078002807D10120A0
:1057D0001A49205610390AE0A078002803D0012089
:1057E0002056105C27E00120144920560839085C37
:1057F00021E013481FE0616070BD656070BD114815
:1058000019E0114817E00120800314E00F4803F06D
:105810001FFE40190FE00E480DE002200BE00D487E
:1058200009E00C48801C06E0102004E00A4802E071
:105830000E2000E00120606070BD00007499000837
:10584000B80B0000881300007017000018FCFFFF61
:1058500000EA06372C010020CC0C002070B50E4960
:10586000002807D0012804D1881E028809880A432D
:10587000028070BD094C0A4B2046303025C825C334
:105880003C3425CC25C30320088003490122881E0F
:1058900000F0E0FA70BD00002E0100205C990008C5
:1058A000CC0C0020FFB5072489B0064600256846C9
:1058B0002F4605813AE0306803A9401900F040FB0B
:1058C000002836D02818C5B26946088A0881C97BE5
:1058D0000724084304D0481E042801D9072901D30E
:1058E000062423E0002006290CD06B4601221B89E8
:1058F00082401A4216D00C222E4B42439A58002A5C
:105900000ED00FE00C222B4B42439A58002A09D0AC
:105910006B4601221B8982401A436B461A8101E0C3
:1059200064086400401CC0B21028DCD33079A8425F
:10593000C1D8204907200191009068460D22825667
:10594000002302A9102000F094FA002801D1FD20C4
:10595000044069460E2008560522002100F048FB4D
:10596000002808D169460E200856002801DA8F73F6
:1059700001E0FB200440072C0AD16846007B002888
:1059800002D10120694608730B48694609890180E4
:105990006846417B0A9801706846817B0B980170CC
:1059A0006846017B0C9801701298057020460DB076
:1059B000F0BD0000CC0C00202C0100203EB5016899
:1059C00003240A68002A0DD0009100796946087105
:1059D0006846FFF741FE002812D004280BD00528A6
:1059E0000DD10AE000796946087202A8FFF79EFE11
:1059F000002804D004E0022402E0012400E0002496
:105A000020463EBDF7B588B00446002069460873BD
:105A1000049005900690014607900122374800F057
:105A200058FA364D002803D12888032108432880DE
:105A3000606802F01BF92168884229D32F49A07AB7
:105A40000122091D00F099FA07462C4803AE04A96B
:105A5000001D6A4643C2217A607A294B274AFBF728
:105A6000F9F9009000281CD00027411E384603F0A9
:105A7000EFFCC5B204A8445D681C0099FAF738FB36
:105A8000CDB202F0EDF801900C202646464319E015
:105A90006946087B401C0873606802F0E7F82168DB
:105AA0000F1A6846007B00281FD00A98076013E091
:105AB0001348542281591348D243836901209847DF
:105AC00000280CD0019802F0D1F80628F0D30998EC
:105AD00004700A990020086001200BB0F0BD7F1C03
